{
  "_format": "hh-sol-artifact-1",
  "contractName": "Lottery",
  "sourceName": "contracts/Raffle.sol",
  "abi": [
    {
      "inputs": [
        {
          "internalType": "address",
          "name": "vrfCoordinatorV2",
          "type": "address"
        },
        {
          "internalType": "uint256",
          "name": "entranceFee",
          "type": "uint256"
        },
        {
          "internalType": "bytes32",
          "name": "gasLane",
          "type": "bytes32"
        },
        {
          "internalType": "uint64",
          "name": "subscriptionId",
          "type": "uint64"
        },
        {
          "internalType": "uint32",
          "name": "callbackGasLimit",
          "type": "uint32"
        },
        {
          "internalType": "uint256",
          "name": "interval",
          "type": "uint256"
        }
      ],
      "stateMutability": "nonpayable",
      "type": "constructor"
    },
    {
      "inputs": [
        {
          "internalType": "address",
          "name": "have",
          "type": "address"
        },
        {
          "internalType": "address",
          "name": "want",
          "type": "address"
        }
      ],
      "name": "OnlyCoordinatorCanFulfill",
      "type": "error"
    },
    {
      "inputs": [],
      "name": "Raffle__NotEnoughETH",
      "type": "error"
    },
    {
      "inputs": [],
      "name": "Raffle__NotOpen",
      "type": "error"
    },
    {
      "inputs": [],
      "name": "Raffle__TransferFailed",
      "type": "error"
    },
    {
      "inputs": [
        {
          "internalType": "uint256",
          "name": "currentBalance",
          "type": "uint256"
        },
        {
          "internalType": "uint256",
          "name": "numPlayers",
          "type": "uint256"
        },
        {
          "internalType": "uint256",
          "name": "raffleState",
          "type": "uint256"
        }
      ],
      "name": "Raffle__UpkeepNotNeeded",
      "type": "error"
    },
    {
      "anonymous": false,
      "inputs": [
        {
          "indexed": true,
          "internalType": "address",
          "name": "player",
          "type": "address"
        }
      ],
      "name": "RaffleEnter",
      "type": "event"
    },
    {
      "anonymous": false,
      "inputs": [
        {
          "indexed": true,
          "internalType": "uint256",
          "name": "requestId",
          "type": "uint256"
        }
      ],
      "name": "RequestedRaffleWinner",
      "type": "event"
    },
    {
      "anonymous": false,
      "inputs": [
        {
          "indexed": true,
          "internalType": "address",
          "name": "winner",
          "type": "address"
        }
      ],
      "name": "WinnerPicked",
      "type": "event"
    },
    {
      "inputs": [
        {
          "internalType": "bytes",
          "name": "",
          "type": "bytes"
        }
      ],
      "name": "checkUpkeep",
      "outputs": [
        {
          "internalType": "bool",
          "name": "upkeepNeeded",
          "type": "bool"
        },
        {
          "internalType": "bytes",
          "name": "",
          "type": "bytes"
        }
      ],
      "stateMutability": "view",
      "type": "function"
    },
    {
      "inputs": [],
      "name": "enterLottery",
      "outputs": [],
      "stateMutability": "payable",
      "type": "function"
    },
    {
      "inputs": [],
      "name": "getEntranceFee",
      "outputs": [
        {
          "internalType": "uint256",
          "name": "",
          "type": "uint256"
        }
      ],
      "stateMutability": "view",
      "type": "function"
    },
    {
      "inputs": [],
      "name": "getNumWords",
      "outputs": [
        {
          "internalType": "uint256",
          "name": "",
          "type": "uint256"
        }
      ],
      "stateMutability": "view",
      "type": "function"
    },
    {
      "inputs": [
        {
          "internalType": "uint256",
          "name": "index",
          "type": "uint256"
        }
      ],
      "name": "getPlayer",
      "outputs": [
        {
          "internalType": "address",
          "name": "",
          "type": "address"
        }
      ],
      "stateMutability": "view",
      "type": "function"
    },
    {
      "inputs": [],
      "name": "getRaffleState",
      "outputs": [
        {
          "internalType": "enum Lottery.RaffleState",
          "name": "",
          "type": "uint8"
        }
      ],
      "stateMutability": "view",
      "type": "function"
    },
    {
      "inputs": [],
      "name": "getRecentWinner",
      "outputs": [
        {
          "internalType": "address",
          "name": "",
          "type": "address"
        }
      ],
      "stateMutability": "view",
      "type": "function"
    },
    {
      "inputs": [
        {
          "internalType": "bytes",
          "name": "",
          "type": "bytes"
        }
      ],
      "name": "performUpkeep",
      "outputs": [],
      "stateMutability": "nonpayable",
      "type": "function"
    },
    {
      "inputs": [
        {
          "internalType": "uint256",
          "name": "requestId",
          "type": "uint256"
        },
        {
          "internalType": "uint256[]",
          "name": "randomWords",
          "type": "uint256[]"
        }
      ],
      "name": "rawFulfillRandomWords",
      "outputs": [],
      "stateMutability": "nonpayable",
      "type": "function"
    }
  ],
  "bytecode": "0x6101606040523480156200001257600080fd5b506040516200171938038062001719833981810160405281019062000038919062000294565b858073ffffffffffffffffffffffffffffffffffffffff1660808173ffffffffffffffffffffffffffffffffffffffff1681525050508460a081815250508573ffffffffffffffffffffffffffffffffffffffff1660c08173ffffffffffffffffffffffffffffffffffffffff16815250508360e081815250508267ffffffffffffffff166101008167ffffffffffffffff16815250508163ffffffff166101208163ffffffff16815250506000600160146101000a81548160ff021916908360018111156200010d576200010c62000330565b5b0217905550426002819055508061014081815250505050505050506200035f565b600080fd5b600073ffffffffffffffffffffffffffffffffffffffff82169050919050565b6000620001608262000133565b9050919050565b620001728162000153565b81146200017e57600080fd5b50565b600081519050620001928162000167565b92915050565b6000819050919050565b620001ad8162000198565b8114620001b957600080fd5b50565b600081519050620001cd81620001a2565b92915050565b6000819050919050565b620001e881620001d3565b8114620001f457600080fd5b50565b6000815190506200020881620001dd565b92915050565b600067ffffffffffffffff82169050919050565b6200022d816200020e565b81146200023957600080fd5b50565b6000815190506200024d8162000222565b92915050565b600063ffffffff82169050919050565b6200026e8162000253565b81146200027a57600080fd5b50565b6000815190506200028e8162000263565b92915050565b60008060008060008060c08789031215620002b457620002b36200012e565b5b6000620002c489828a0162000181565b9650506020620002d789828a01620001bc565b9550506040620002ea89828a01620001f7565b9450506060620002fd89828a016200023c565b93505060806200031089828a016200027d565b92505060a06200032389828a01620001bc565b9150509295509295509295565b7f4e487b7100000000000000000000000000000000000000000000000000000000600052602160045260246000fd5b60805160a05160c05160e051610100516101205161014051611351620003c86000396000610586015260006104440152600061042101526000610400015260006103c401526000818161021201526105f201526000818161024f01526102a301526113516000f3fe6080604052600436106100865760003560e01c8063473f1ddc11610059578063473f1ddc1461013357806353a2c19a1461015e5780636e04ff0d14610189578063c1af5785146101c7578063e55ae4e8146101d157610086565b806309bc33a71461008b578063115cbaf5146100b65780631fe543e3146100e15780634585e33b1461010a575b600080fd5b34801561009757600080fd5b506100a061020e565b6040516100ad9190610a97565b60405180910390f35b3480156100c257600080fd5b506100cb610236565b6040516100d89190610b29565b60405180910390f35b3480156100ed57600080fd5b5061010860048036038101906101039190610cdd565b61024d565b005b34801561011657600080fd5b50610131600480360381019061012c9190610d94565b61030d565b005b34801561013f57600080fd5b5061014861050c565b6040516101559190610e22565b60405180910390f35b34801561016a57600080fd5b50610173610536565b6040516101809190610a97565b60405180910390f35b34801561019557600080fd5b506101b060048036038101906101ab9190610ef2565b610543565b6040516101be929190610fde565b60405180910390f35b6101cf6105f0565b005b3480156101dd57600080fd5b506101f860048036038101906101f3919061100e565b61075f565b6040516102059190610e22565b60405180910390f35b60007f0000000000000000000000000000000000000000000000000000000000000000905090565b6000600160149054906101000a900460ff16905090565b7f000000000000000000000000000000000000000000000000000000000000000073ffffffffffffffffffffffffffffffffffffffff163373ffffffffffffffffffffffffffffffffffffffff16146102ff57337f00000000000000000000000000000000000000000000000000000000000000006040517f1cf993f40000000000000000000000000000000000000000000000000000000081526004016102f692919061103b565b60405180910390fd5b61030982826107a6565b5050565b600061032760405180602001604052806000815250610543565b509050806103965747600080549050600160149054906101000a900460ff16600181111561035857610357610ab2565b5b6040517f584327aa00000000000000000000000000000000000000000000000000000000815260040161038d93929190611064565b60405180910390fd5b60018060146101000a81548160ff021916908360018111156103bb576103ba610ab2565b5b021790555060007f000000000000000000000000000000000000000000000000000000000000000073ffffffffffffffffffffffffffffffffffffffff16635d3b1d307f00000000000000000000000000000000000000000000000000000000000000007f000000000000000000000000000000000000000000000000000000000000000060037f000000000000000000000000000000000000000000000000000000000000000060016040518663ffffffff1660e01b815260040161048595949392919061114e565b602060405180830381600087803b15801561049f57600080fd5b505af11580156104b3573d6000803e3d6000fd5b505050506040513d601f19601f820116820180604052508101906104d791906111b6565b9050807fcd6e45c8998311cab7e9d4385596cac867e20a0587194b954fa3a731c93ce78b60405160405180910390a250505050565b6000600160009054906101000a900473ffffffffffffffffffffffffffffffffffffffff16905090565b6000600161ffff16905090565b600060606000600160149054906101000a900460ff16600181111561056b5761056a610ab2565b5b6000600181111561057f5761057e610ab2565b5b14905060007f0000000000000000000000000000000000000000000000000000000000000000600254426105b39190611212565b119050600080600080549050119050600080471190508380156105d35750825b80156105dc5750815b80156105e55750805b955050505050915091565b7f000000000000000000000000000000000000000000000000000000000000000034101561064a576040517f9894879b00000000000000000000000000000000000000000000000000000000815260040160405180910390fd5b6000600181111561065e5761065d610ab2565b5b600160149054906101000a900460ff1660018111156106805761067f610ab2565b5b146106b7576040517f1425571c00000000000000000000000000000000000000000000000000000000815260040160405180910390fd5b6000339080600181540180825580915050600190039060005260206000200160009091909190916101000a81548173ffffffffffffffffffffffffffffffffffffffff021916908373ffffffffffffffffffffffffffffffffffffffff1602179055503373ffffffffffffffffffffffffffffffffffffffff167f0805e1d667bddb8a95f0f09880cf94f403fb596ce79928d9f29b74203ba284d460405160405180910390a2565b600080828154811061077457610773611246565b5b9060005260206000200160009054906101000a900473ffffffffffffffffffffffffffffffffffffffff169050919050565b60008080549050826000815181106107c1576107c0611246565b5b60200260200101516107d391906112a4565b905060008082815481106107ea576107e9611246565b5b9060005260206000200160009054906101000a900473ffffffffffffffffffffffffffffffffffffffff16905080600160006101000a81548173ffffffffffffffffffffffffffffffffffffffff021916908373ffffffffffffffffffffffffffffffffffffffff1602179055506000600160146101000a81548160ff0219169083600181111561087e5761087d610ab2565b5b0217905550600067ffffffffffffffff81111561089e5761089d610b9a565b5b6040519080825280602002602001820160405280156108cc5781602001602082028036833780820191505090505b50600090805190602001906108e29291906109d7565b504260028190555060008173ffffffffffffffffffffffffffffffffffffffff164760405161091090611306565b60006040518083038185875af1925050503d806000811461094d576040519150601f19603f3d011682016040523d82523d6000602084013e610952565b606091505b505090508061098d576040517fa1d04b3900000000000000000000000000000000000000000000000000000000815260040160405180910390fd5b8173ffffffffffffffffffffffffffffffffffffffff167f5b690ec4a06fe979403046eaeea5b3ce38524683c3001f662c8b5a829632f7df60405160405180910390a25050505050565b828054828255906000526020600020908101928215610a50579160200282015b82811115610a4f5782518260006101000a81548173ffffffffffffffffffffffffffffffffffffffff021916908373ffffffffffffffffffffffffffffffffffffffff160217905550916020019190600101906109f7565b5b509050610a5d9190610a61565b5090565b5b80821115610a7a576000816000905550600101610a62565b5090565b6000819050919050565b610a9181610a7e565b82525050565b6000602082019050610aac6000830184610a88565b92915050565b7f4e487b7100000000000000000000000000000000000000000000000000000000600052602160045260246000fd5b60028110610af257610af1610ab2565b5b50565b6000819050610b0382610ae1565b919050565b6000610b1382610af5565b9050919050565b610b2381610b08565b82525050565b6000602082019050610b3e6000830184610b1a565b92915050565b6000604051905090565b600080fd5b600080fd5b610b6181610a7e565b8114610b6c57600080fd5b50565b600081359050610b7e81610b58565b92915050565b600080fd5b6000601f19601f8301169050919050565b7f4e487b7100000000000000000000000000000000000000000000000000000000600052604160045260246000fd5b610bd282610b89565b810181811067ffffffffffffffff82111715610bf157610bf0610b9a565b5b80604052505050565b6000610c04610b44565b9050610c108282610bc9565b919050565b600067ffffffffffffffff821115610c3057610c2f610b9a565b5b602082029050602081019050919050565b600080fd5b6000610c59610c5484610c15565b610bfa565b90508083825260208201905060208402830185811115610c7c57610c7b610c41565b5b835b81811015610ca55780610c918882610b6f565b845260208401935050602081019050610c7e565b5050509392505050565b600082601f830112610cc457610cc3610b84565b5b8135610cd4848260208601610c46565b91505092915050565b60008060408385031215610cf457610cf3610b4e565b5b6000610d0285828601610b6f565b925050602083013567ffffffffffffffff811115610d2357610d22610b53565b5b610d2f85828601610caf565b9150509250929050565b600080fd5b60008083601f840112610d5457610d53610b84565b5b8235905067ffffffffffffffff811115610d7157610d70610d39565b5b602083019150836001820283011115610d8d57610d8c610c41565b5b9250929050565b60008060208385031215610dab57610daa610b4e565b5b600083013567ffffffffffffffff811115610dc957610dc8610b53565b5b610dd585828601610d3e565b92509250509250929050565b600073ffffffffffffffffffffffffffffffffffffffff82169050919050565b6000610e0c82610de1565b9050919050565b610e1c81610e01565b82525050565b6000602082019050610e376000830184610e13565b92915050565b600080fd5b600067ffffffffffffffff821115610e5d57610e5c610b9a565b5b610e6682610b89565b9050602081019050919050565b82818337600083830152505050565b6000610e95610e9084610e42565b610bfa565b905082815260208101848484011115610eb157610eb0610e3d565b5b610ebc848285610e73565b509392505050565b600082601f830112610ed957610ed8610b84565b5b8135610ee9848260208601610e82565b91505092915050565b600060208284031215610f0857610f07610b4e565b5b600082013567ffffffffffffffff811115610f2657610f25610b53565b5b610f3284828501610ec4565b91505092915050565b60008115159050919050565b610f5081610f3b565b82525050565b600081519050919050565b600082825260208201905092915050565b60005b83811015610f90578082015181840152602081019050610f75565b83811115610f9f576000848401525b50505050565b6000610fb082610f56565b610fba8185610f61565b9350610fca818560208601610f72565b610fd381610b89565b840191505092915050565b6000604082019050610ff36000830185610f47565b81810360208301526110058184610fa5565b90509392505050565b60006020828403121561102457611023610b4e565b5b600061103284828501610b6f565b91505092915050565b60006040820190506110506000830185610e13565b61105d6020830184610e13565b9392505050565b60006060820190506110796000830186610a88565b6110866020830185610a88565b6110936040830184610a88565b949350505050565b6000819050919050565b6110ae8161109b565b82525050565b600067ffffffffffffffff82169050919050565b6110d1816110b4565b82525050565b600061ffff82169050919050565b6110ee816110d7565b82525050565b600063ffffffff82169050919050565b61110d816110f4565b82525050565b6000819050919050565b600061113861113361112e846110d7565b611113565b6110f4565b9050919050565b6111488161111d565b82525050565b600060a08201905061116360008301886110a5565b61117060208301876110c8565b61117d60408301866110e5565b61118a6060830185611104565b611197608083018461113f565b9695505050505050565b6000815190506111b081610b58565b92915050565b6000602082840312156111cc576111cb610b4e565b5b60006111da848285016111a1565b91505092915050565b7f4e487b7100000000000000000000000000000000000000000000000000000000600052601160045260246000fd5b600061121d82610a7e565b915061122883610a7e565b92508282101561123b5761123a6111e3565b5b828203905092915050565b7f4e487b7100000000000000000000000000000000000000000000000000000000600052603260045260246000fd5b7f4e487b7100000000000000000000000000000000000000000000000000000000600052601260045260246000fd5b60006112af82610a7e565b91506112ba83610a7e565b9250826112ca576112c9611275565b5b828206905092915050565b600081905092915050565b50565b60006112f06000836112d5565b91506112fb826112e0565b600082019050919050565b6000611311826112e3565b915081905091905056fea264697066735822122014bc750c4638b9534ba4f71290defb50ac3e89f80d3d1b8e7abef94f5ae9523b64736f6c63430008090033",
  "linkReferences": {},
  "deployedLinkReferences": {}
}