{
  "_format": "hh-sol-artifact-1",
  "contractName": "Lottery",
  "sourceName": "contracts/Lottery.sol",
  "abi": [
    {
      "inputs": [
        {
          "internalType": "address",
          "name": "vrfCoordinatorV2",
          "type": "address"
        },
        {
          "internalType": "uint256",
          "name": "entranceFee",
          "type": "uint256"
        },
        {
          "internalType": "bytes32",
          "name": "gasLane",
          "type": "bytes32"
        },
        {
          "internalType": "uint64",
          "name": "subscriptionId",
          "type": "uint64"
        },
        {
          "internalType": "uint32",
          "name": "callbackGasLimit",
          "type": "uint32"
        },
        {
          "internalType": "uint256",
          "name": "interval",
          "type": "uint256"
        }
      ],
      "stateMutability": "nonpayable",
      "type": "constructor"
    },
    {
      "inputs": [
        {
          "internalType": "address",
          "name": "have",
          "type": "address"
        },
        {
          "internalType": "address",
          "name": "want",
          "type": "address"
        }
      ],
      "name": "OnlyCoordinatorCanFulfill",
      "type": "error"
    },
    {
      "inputs": [],
      "name": "Raffle__NotEnoughETH",
      "type": "error"
    },
    {
      "inputs": [],
      "name": "Raffle__NotOpen",
      "type": "error"
    },
    {
      "inputs": [],
      "name": "Raffle__TransferFailed",
      "type": "error"
    },
    {
      "inputs": [
        {
          "internalType": "uint256",
          "name": "currentBalance",
          "type": "uint256"
        },
        {
          "internalType": "uint256",
          "name": "numPlayers",
          "type": "uint256"
        },
        {
          "internalType": "uint256",
          "name": "raffleState",
          "type": "uint256"
        }
      ],
      "name": "Raffle__UpkeepNotNeeded",
      "type": "error"
    },
    {
      "anonymous": false,
      "inputs": [
        {
          "indexed": true,
          "internalType": "address",
          "name": "player",
          "type": "address"
        }
      ],
      "name": "RaffleEnter",
      "type": "event"
    },
    {
      "anonymous": false,
      "inputs": [
        {
          "indexed": true,
          "internalType": "uint256",
          "name": "requestId",
          "type": "uint256"
        }
      ],
      "name": "RequestedRaffleWinner",
      "type": "event"
    },
    {
      "anonymous": false,
      "inputs": [
        {
          "indexed": true,
          "internalType": "address",
          "name": "winner",
          "type": "address"
        }
      ],
      "name": "WinnerPicked",
      "type": "event"
    },
    {
      "inputs": [
        {
          "internalType": "bytes",
          "name": "",
          "type": "bytes"
        }
      ],
      "name": "checkUpkeep",
      "outputs": [
        {
          "internalType": "bool",
          "name": "upkeepNeeded",
          "type": "bool"
        },
        {
          "internalType": "bytes",
          "name": "",
          "type": "bytes"
        }
      ],
      "stateMutability": "nonpayable",
      "type": "function"
    },
    {
      "inputs": [],
      "name": "enterLottery",
      "outputs": [],
      "stateMutability": "payable",
      "type": "function"
    },
    {
      "inputs": [],
      "name": "getEntranceFee",
      "outputs": [
        {
          "internalType": "uint256",
          "name": "",
          "type": "uint256"
        }
      ],
      "stateMutability": "view",
      "type": "function"
    },
    {
      "inputs": [],
      "name": "getLatestTimeStamp",
      "outputs": [
        {
          "internalType": "uint256",
          "name": "",
          "type": "uint256"
        }
      ],
      "stateMutability": "view",
      "type": "function"
    },
    {
      "inputs": [],
      "name": "getNumWords",
      "outputs": [
        {
          "internalType": "uint256",
          "name": "",
          "type": "uint256"
        }
      ],
      "stateMutability": "pure",
      "type": "function"
    },
    {
      "inputs": [],
      "name": "getNumberOfPlayers",
      "outputs": [
        {
          "internalType": "uint256",
          "name": "",
          "type": "uint256"
        }
      ],
      "stateMutability": "view",
      "type": "function"
    },
    {
      "inputs": [
        {
          "internalType": "uint256",
          "name": "index",
          "type": "uint256"
        }
      ],
      "name": "getPlayer",
      "outputs": [
        {
          "internalType": "address",
          "name": "",
          "type": "address"
        }
      ],
      "stateMutability": "view",
      "type": "function"
    },
    {
      "inputs": [],
      "name": "getRaffleState",
      "outputs": [
        {
          "internalType": "enum Lottery.RaffleState",
          "name": "",
          "type": "uint8"
        }
      ],
      "stateMutability": "view",
      "type": "function"
    },
    {
      "inputs": [],
      "name": "getRecentWinner",
      "outputs": [
        {
          "internalType": "address",
          "name": "",
          "type": "address"
        }
      ],
      "stateMutability": "view",
      "type": "function"
    },
    {
      "inputs": [],
      "name": "getRequestConfirmations",
      "outputs": [
        {
          "internalType": "uint256",
          "name": "",
          "type": "uint256"
        }
      ],
      "stateMutability": "pure",
      "type": "function"
    },
    {
      "inputs": [
        {
          "internalType": "bytes",
          "name": "",
          "type": "bytes"
        }
      ],
      "name": "performUpkeep",
      "outputs": [],
      "stateMutability": "nonpayable",
      "type": "function"
    },
    {
      "inputs": [
        {
          "internalType": "uint256",
          "name": "requestId",
          "type": "uint256"
        },
        {
          "internalType": "uint256[]",
          "name": "randomWords",
          "type": "uint256[]"
        }
      ],
      "name": "rawFulfillRandomWords",
      "outputs": [],
      "stateMutability": "nonpayable",
      "type": "function"
    }
  ],
  "bytecode": "0x6101606040523480156200001257600080fd5b50604051620017de380380620017de833981810160405281019062000038919062000294565b858073ffffffffffffffffffffffffffffffffffffffff1660808173ffffffffffffffffffffffffffffffffffffffff1681525050508460a081815250508573ffffffffffffffffffffffffffffffffffffffff1660c08173ffffffffffffffffffffffffffffffffffffffff16815250508360e081815250508267ffffffffffffffff166101008167ffffffffffffffff16815250508163ffffffff166101208163ffffffff16815250506000600160146101000a81548160ff021916908360018111156200010d576200010c62000330565b5b0217905550426002819055508061014081815250505050505050506200035f565b600080fd5b600073ffffffffffffffffffffffffffffffffffffffff82169050919050565b6000620001608262000133565b9050919050565b620001728162000153565b81146200017e57600080fd5b50565b600081519050620001928162000167565b92915050565b6000819050919050565b620001ad8162000198565b8114620001b957600080fd5b50565b600081519050620001cd81620001a2565b92915050565b6000819050919050565b620001e881620001d3565b8114620001f457600080fd5b50565b6000815190506200020881620001dd565b92915050565b600067ffffffffffffffff82169050919050565b6200022d816200020e565b81146200023957600080fd5b50565b6000815190506200024d8162000222565b92915050565b600063ffffffff82169050919050565b6200026e8162000253565b81146200027a57600080fd5b50565b6000815190506200028e8162000263565b92915050565b60008060008060008060c08789031215620002b457620002b36200012e565b5b6000620002c489828a0162000181565b9650506020620002d789828a01620001bc565b9550506040620002ea89828a01620001f7565b9450506060620002fd89828a016200023c565b93505060806200031089828a016200027d565b92505060a06200032389828a01620001bc565b9150509295509295509295565b7f4e487b7100000000000000000000000000000000000000000000000000000000600052602160045260246000fd5b60805160a05160c05160e051610100516101205161014051611416620003c8600039600061063f015260006104f0015260006104cd015260006104ac015260006104700152600081816102b401526106ab0152600081816102f1015261034501526114166000f3fe6080604052600436106100a75760003560e01c806353a2c19a1161006457806353a2c19a146101aa5780635f1b0fd8146101d55780636e04ff0d14610200578063c1af57851461023e578063e55ae4e814610248578063fd6673f514610285576100a7565b806309bc33a7146100ac578063115cbaf5146100d75780631fe543e314610102578063320229eb1461012b5780634585e33b14610156578063473f1ddc1461017f575b600080fd5b3480156100b857600080fd5b506100c16102b0565b6040516100ce9190610b5c565b60405180910390f35b3480156100e357600080fd5b506100ec6102d8565b6040516100f99190610bee565b60405180910390f35b34801561010e57600080fd5b5061012960048036038101906101249190610da2565b6102ef565b005b34801561013757600080fd5b506101406103af565b60405161014d9190610b5c565b60405180910390f35b34801561016257600080fd5b5061017d60048036038101906101789190610e59565b6103b9565b005b34801561018b57600080fd5b506101946105b8565b6040516101a19190610ee7565b60405180910390f35b3480156101b657600080fd5b506101bf6105e2565b6040516101cc9190610b5c565b60405180910390f35b3480156101e157600080fd5b506101ea6105ef565b6040516101f79190610b5c565b60405180910390f35b34801561020c57600080fd5b5061022760048036038101906102229190610fb7565b6105fc565b6040516102359291906110a3565b60405180910390f35b6102466106a9565b005b34801561025457600080fd5b5061026f600480360381019061026a91906110d3565b610818565b60405161027c9190610ee7565b60405180910390f35b34801561029157600080fd5b5061029a61085f565b6040516102a79190610b5c565b60405180910390f35b60007f0000000000000000000000000000000000000000000000000000000000000000905090565b6000600160149054906101000a900460ff16905090565b7f000000000000000000000000000000000000000000000000000000000000000073ffffffffffffffffffffffffffffffffffffffff163373ffffffffffffffffffffffffffffffffffffffff16146103a157337f00000000000000000000000000000000000000000000000000000000000000006040517f1cf993f4000000000000000000000000000000000000000000000000000000008152600401610398929190611100565b60405180910390fd5b6103ab828261086b565b5050565b6000600254905090565b60006103d3604051806020016040528060008152506105fc565b509050806104425747600080549050600160149054906101000a900460ff16600181111561040457610403610b77565b5b6040517f584327aa00000000000000000000000000000000000000000000000000000000815260040161043993929190611129565b60405180910390fd5b60018060146101000a81548160ff0219169083600181111561046757610466610b77565b5b021790555060007f000000000000000000000000000000000000000000000000000000000000000073ffffffffffffffffffffffffffffffffffffffff16635d3b1d307f00000000000000000000000000000000000000000000000000000000000000007f000000000000000000000000000000000000000000000000000000000000000060037f000000000000000000000000000000000000000000000000000000000000000060016040518663ffffffff1660e01b8152600401610531959493929190611213565b602060405180830381600087803b15801561054b57600080fd5b505af115801561055f573d6000803e3d6000fd5b505050506040513d601f19601f82011682018060405250810190610583919061127b565b9050807fcd6e45c8998311cab7e9d4385596cac867e20a0587194b954fa3a731c93ce78b60405160405180910390a250505050565b6000600160009054906101000a900473ffffffffffffffffffffffffffffffffffffffff16905090565b6000600161ffff16905090565b6000600361ffff16905090565b600060606000600160149054906101000a900460ff16600181111561062457610623610b77565b5b6000600181111561063857610637610b77565b5b14905060007f00000000000000000000000000000000000000000000000000000000000000006002544261066c91906112d7565b1190506000806000805490501190506000804711905083801561068c5750825b80156106955750815b801561069e5750805b955050505050915091565b7f0000000000000000000000000000000000000000000000000000000000000000341015610703576040517f9894879b00000000000000000000000000000000000000000000000000000000815260040160405180910390fd5b6000600181111561071757610716610b77565b5b600160149054906101000a900460ff16600181111561073957610738610b77565b5b14610770576040517f1425571c00000000000000000000000000000000000000000000000000000000815260040160405180910390fd5b6000339080600181540180825580915050600190039060005260206000200160009091909190916101000a81548173ffffffffffffffffffffffffffffffffffffffff021916908373ffffffffffffffffffffffffffffffffffffffff1602179055503373ffffffffffffffffffffffffffffffffffffffff167f0805e1d667bddb8a95f0f09880cf94f403fb596ce79928d9f29b74203ba284d460405160405180910390a2565b600080828154811061082d5761082c61130b565b5b9060005260206000200160009054906101000a900473ffffffffffffffffffffffffffffffffffffffff169050919050565b60008080549050905090565b60008080549050826000815181106108865761088561130b565b5b60200260200101516108989190611369565b905060008082815481106108af576108ae61130b565b5b9060005260206000200160009054906101000a900473ffffffffffffffffffffffffffffffffffffffff16905080600160006101000a81548173ffffffffffffffffffffffffffffffffffffffff021916908373ffffffffffffffffffffffffffffffffffffffff1602179055506000600160146101000a81548160ff0219169083600181111561094357610942610b77565b5b0217905550600067ffffffffffffffff81111561096357610962610c5f565b5b6040519080825280602002602001820160405280156109915781602001602082028036833780820191505090505b50600090805190602001906109a7929190610a9c565b504260028190555060008173ffffffffffffffffffffffffffffffffffffffff16476040516109d5906113cb565b60006040518083038185875af1925050503d8060008114610a12576040519150601f19603f3d011682016040523d82523d6000602084013e610a17565b606091505b5050905080610a52576040517fa1d04b3900000000000000000000000000000000000000000000000000000000815260040160405180910390fd5b8173ffffffffffffffffffffffffffffffffffffffff167f5b690ec4a06fe979403046eaeea5b3ce38524683c3001f662c8b5a829632f7df60405160405180910390a25050505050565b828054828255906000526020600020908101928215610b15579160200282015b82811115610b145782518260006101000a81548173ffffffffffffffffffffffffffffffffffffffff021916908373ffffffffffffffffffffffffffffffffffffffff16021790555091602001919060010190610abc565b5b509050610b229190610b26565b5090565b5b80821115610b3f576000816000905550600101610b27565b5090565b6000819050919050565b610b5681610b43565b82525050565b6000602082019050610b716000830184610b4d565b92915050565b7f4e487b7100000000000000000000000000000000000000000000000000000000600052602160045260246000fd5b60028110610bb757610bb6610b77565b5b50565b6000819050610bc882610ba6565b919050565b6000610bd882610bba565b9050919050565b610be881610bcd565b82525050565b6000602082019050610c036000830184610bdf565b92915050565b6000604051905090565b600080fd5b600080fd5b610c2681610b43565b8114610c3157600080fd5b50565b600081359050610c4381610c1d565b92915050565b600080fd5b6000601f19601f8301169050919050565b7f4e487b7100000000000000000000000000000000000000000000000000000000600052604160045260246000fd5b610c9782610c4e565b810181811067ffffffffffffffff82111715610cb657610cb5610c5f565b5b80604052505050565b6000610cc9610c09565b9050610cd58282610c8e565b919050565b600067ffffffffffffffff821115610cf557610cf4610c5f565b5b602082029050602081019050919050565b600080fd5b6000610d1e610d1984610cda565b610cbf565b90508083825260208201905060208402830185811115610d4157610d40610d06565b5b835b81811015610d6a5780610d568882610c34565b845260208401935050602081019050610d43565b5050509392505050565b600082601f830112610d8957610d88610c49565b5b8135610d99848260208601610d0b565b91505092915050565b60008060408385031215610db957610db8610c13565b5b6000610dc785828601610c34565b925050602083013567ffffffffffffffff811115610de857610de7610c18565b5b610df485828601610d74565b9150509250929050565b600080fd5b60008083601f840112610e1957610e18610c49565b5b8235905067ffffffffffffffff811115610e3657610e35610dfe565b5b602083019150836001820283011115610e5257610e51610d06565b5b9250929050565b60008060208385031215610e7057610e6f610c13565b5b600083013567ffffffffffffffff811115610e8e57610e8d610c18565b5b610e9a85828601610e03565b92509250509250929050565b600073ffffffffffffffffffffffffffffffffffffffff82169050919050565b6000610ed182610ea6565b9050919050565b610ee181610ec6565b82525050565b6000602082019050610efc6000830184610ed8565b92915050565b600080fd5b600067ffffffffffffffff821115610f2257610f21610c5f565b5b610f2b82610c4e565b9050602081019050919050565b82818337600083830152505050565b6000610f5a610f5584610f07565b610cbf565b905082815260208101848484011115610f7657610f75610f02565b5b610f81848285610f38565b509392505050565b600082601f830112610f9e57610f9d610c49565b5b8135610fae848260208601610f47565b91505092915050565b600060208284031215610fcd57610fcc610c13565b5b600082013567ffffffffffffffff811115610feb57610fea610c18565b5b610ff784828501610f89565b91505092915050565b60008115159050919050565b61101581611000565b82525050565b600081519050919050565b600082825260208201905092915050565b60005b8381101561105557808201518184015260208101905061103a565b83811115611064576000848401525b50505050565b60006110758261101b565b61107f8185611026565b935061108f818560208601611037565b61109881610c4e565b840191505092915050565b60006040820190506110b8600083018561100c565b81810360208301526110ca818461106a565b90509392505050565b6000602082840312156110e9576110e8610c13565b5b60006110f784828501610c34565b91505092915050565b60006040820190506111156000830185610ed8565b6111226020830184610ed8565b9392505050565b600060608201905061113e6000830186610b4d565b61114b6020830185610b4d565b6111586040830184610b4d565b949350505050565b6000819050919050565b61117381611160565b82525050565b600067ffffffffffffffff82169050919050565b61119681611179565b82525050565b600061ffff82169050919050565b6111b38161119c565b82525050565b600063ffffffff82169050919050565b6111d2816111b9565b82525050565b6000819050919050565b60006111fd6111f86111f38461119c565b6111d8565b6111b9565b9050919050565b61120d816111e2565b82525050565b600060a082019050611228600083018861116a565b611235602083018761118d565b61124260408301866111aa565b61124f60608301856111c9565b61125c6080830184611204565b9695505050505050565b60008151905061127581610c1d565b92915050565b60006020828403121561129157611290610c13565b5b600061129f84828501611266565b91505092915050565b7f4e487b7100000000000000000000000000000000000000000000000000000000600052601160045260246000fd5b60006112e282610b43565b91506112ed83610b43565b925082821015611300576112ff6112a8565b5b828203905092915050565b7f4e487b7100000000000000000000000000000000000000000000000000000000600052603260045260246000fd5b7f4e487b7100000000000000000000000000000000000000000000000000000000600052601260045260246000fd5b600061137482610b43565b915061137f83610b43565b92508261138f5761138e61133a565b5b828206905092915050565b600081905092915050565b50565b60006113b560008361139a565b91506113c0826113a5565b600082019050919050565b60006113d6826113a8565b915081905091905056fea26469706673582212208e828a79309e1f10e298e4e31db6cff3f7760292330c106c80441c81414597a564736f6c63430008090033",
  "linkReferences": {},
  "deployedLinkReferences": {}
}